{
  "_format": "hh-sol-artifact-1",
  "contractName": "Inscrible",
  "sourceName": "contracts/Inscrible.sol",
  "abi": [
    {
      "inputs": [
        {
          "internalType": "uint256",
          "name": "post_id",
          "type": "uint256"
        }
      ],
      "name": "LikePostDecrement",
      "outputs": [],
      "stateMutability": "nonpayable",
      "type": "function"
    },
    {
      "inputs": [
        {
          "internalType": "uint256",
          "name": "post_id",
          "type": "uint256"
        }
      ],
      "name": "LikePostIncrement",
      "outputs": [],
      "stateMutability": "nonpayable",
      "type": "function"
    },
    {
      "inputs": [
        {
          "internalType": "uint256",
          "name": "post_id",
          "type": "uint256"
        }
      ],
      "name": "LikedByExists",
      "outputs": [
        {
          "internalType": "bool",
          "name": "",
          "type": "bool"
        }
      ],
      "stateMutability": "view",
      "type": "function"
    },
    {
      "inputs": [
        {
          "internalType": "address",
          "name": "friend_key",
          "type": "address"
        }
      ],
      "name": "addFriend",
      "outputs": [],
      "stateMutability": "nonpayable",
      "type": "function"
    },
    {
      "inputs": [
        {
          "internalType": "string",
          "name": "_imgHash",
          "type": "string"
        },
        {
          "internalType": "string",
          "name": "desc",
          "type": "string"
        },
        {
          "internalType": "string",
          "name": "imgText",
          "type": "string"
        }
      ],
      "name": "addPostImage",
      "outputs": [],
      "stateMutability": "nonpayable",
      "type": "function"
    },
    {
      "inputs": [
        {
          "internalType": "address",
          "name": "me",
          "type": "address"
        },
        {
          "internalType": "address",
          "name": "following_key",
          "type": "address"
        }
      ],
      "name": "checkAlreadyFriends",
      "outputs": [
        {
          "internalType": "bool",
          "name": "",
          "type": "bool"
        }
      ],
      "stateMutability": "view",
      "type": "function"
    },
    {
      "inputs": [
        {
          "internalType": "string[]",
          "name": "likedBy",
          "type": "string[]"
        },
        {
          "internalType": "string",
          "name": "username",
          "type": "string"
        }
      ],
      "name": "checkIfLikedByExists",
      "outputs": [
        {
          "components": [
            {
              "internalType": "uint256",
              "name": "index",
              "type": "uint256"
            },
            {
              "internalType": "bool",
              "name": "exists",
              "type": "bool"
            }
          ],
          "internalType": "struct Inscrible.LikedExsistence",
          "name": "",
          "type": "tuple"
        }
      ],
      "stateMutability": "pure",
      "type": "function"
    },
    {
      "inputs": [
        {
          "internalType": "address",
          "name": "key",
          "type": "address"
        }
      ],
      "name": "checkUser",
      "outputs": [
        {
          "internalType": "bool",
          "name": "",
          "type": "bool"
        }
      ],
      "stateMutability": "view",
      "type": "function"
    },
    {
      "inputs": [
        {
          "internalType": "string",
          "name": "_username",
          "type": "string"
        },
        {
          "internalType": "string",
          "name": "img",
          "type": "string"
        }
      ],
      "name": "createAccount",
      "outputs": [],
      "stateMutability": "nonpayable",
      "type": "function"
    },
    {
      "inputs": [],
      "name": "getAllAppUser",
      "outputs": [
        {
          "components": [
            {
              "internalType": "string",
              "name": "username",
              "type": "string"
            },
            {
              "internalType": "address",
              "name": "accountAddress",
              "type": "address"
            },
            {
              "internalType": "string",
              "name": "profilePic",
              "type": "string"
            }
          ],
          "internalType": "struct Inscrible.AllUserStruck[]",
          "name": "",
          "type": "tuple[]"
        }
      ],
      "stateMutability": "view",
      "type": "function"
    },
    {
      "inputs": [],
      "name": "getAllPosts",
      "outputs": [
        {
          "components": [
            {
              "internalType": "string",
              "name": "createrName",
              "type": "string"
            },
            {
              "internalType": "address payable",
              "name": "userAddress",
              "type": "address"
            },
            {
              "internalType": "string",
              "name": "imageHash",
              "type": "string"
            },
            {
              "internalType": "string",
              "name": "caption",
              "type": "string"
            },
            {
              "internalType": "string",
              "name": "imageText",
              "type": "string"
            },
            {
              "internalType": "uint256",
              "name": "tipAmount",
              "type": "uint256"
            },
            {
              "internalType": "uint256",
              "name": "id",
              "type": "uint256"
            },
            {
              "internalType": "uint256",
              "name": "likeCount",
              "type": "uint256"
            },
            {
              "internalType": "string[]",
              "name": "likedByUser",
              "type": "string[]"
            }
          ],
          "internalType": "struct Inscrible.Post[]",
          "name": "",
          "type": "tuple[]"
        }
      ],
      "stateMutability": "view",
      "type": "function"
    },
    {
      "inputs": [
        {
          "internalType": "uint256",
          "name": "post_id",
          "type": "uint256"
        }
      ],
      "name": "getLikeCountByPostId",
      "outputs": [
        {
          "internalType": "uint256",
          "name": "",
          "type": "uint256"
        }
      ],
      "stateMutability": "view",
      "type": "function"
    },
    {
      "inputs": [
        {
          "internalType": "address",
          "name": "_user",
          "type": "address"
        }
      ],
      "name": "getMyFollowersList",
      "outputs": [
        {
          "components": [
            {
              "internalType": "address",
              "name": "pubkey",
              "type": "address"
            },
            {
              "internalType": "string",
              "name": "name",
              "type": "string"
            }
          ],
          "internalType": "struct Inscrible.friend[]",
          "name": "",
          "type": "tuple[]"
        }
      ],
      "stateMutability": "view",
      "type": "function"
    },
    {
      "inputs": [
        {
          "internalType": "address",
          "name": "_user",
          "type": "address"
        }
      ],
      "name": "getMyFollowingsList",
      "outputs": [
        {
          "components": [
            {
              "internalType": "address",
              "name": "pubkey",
              "type": "address"
            },
            {
              "internalType": "string",
              "name": "name",
              "type": "string"
            }
          ],
          "internalType": "struct Inscrible.friend[]",
          "name": "",
          "type": "tuple[]"
        }
      ],
      "stateMutability": "view",
      "type": "function"
    },
    {
      "inputs": [
        {
          "internalType": "address",
          "name": "userAddress",
          "type": "address"
        }
      ],
      "name": "getOneUserPosts",
      "outputs": [
        {
          "components": [
            {
              "internalType": "string",
              "name": "createrName",
              "type": "string"
            },
            {
              "internalType": "address payable",
              "name": "userAddress",
              "type": "address"
            },
            {
              "internalType": "string",
              "name": "imageHash",
              "type": "string"
            },
            {
              "internalType": "string",
              "name": "caption",
              "type": "string"
            },
            {
              "internalType": "string",
              "name": "imageText",
              "type": "string"
            },
            {
              "internalType": "uint256",
              "name": "tipAmount",
              "type": "uint256"
            },
            {
              "internalType": "uint256",
              "name": "id",
              "type": "uint256"
            },
            {
              "internalType": "uint256",
              "name": "likeCount",
              "type": "uint256"
            },
            {
              "internalType": "string[]",
              "name": "likedByUser",
              "type": "string[]"
            }
          ],
          "internalType": "struct Inscrible.Post[]",
          "name": "",
          "type": "tuple[]"
        }
      ],
      "stateMutability": "view",
      "type": "function"
    },
    {
      "inputs": [
        {
          "internalType": "address",
          "name": "key",
          "type": "address"
        }
      ],
      "name": "getProfilePic",
      "outputs": [
        {
          "internalType": "string",
          "name": "",
          "type": "string"
        }
      ],
      "stateMutability": "view",
      "type": "function"
    },
    {
      "inputs": [
        {
          "internalType": "uint256",
          "name": "post_id",
          "type": "uint256"
        }
      ],
      "name": "getTipAmountByPostId",
      "outputs": [
        {
          "internalType": "uint256",
          "name": "",
          "type": "uint256"
        }
      ],
      "stateMutability": "view",
      "type": "function"
    },
    {
      "inputs": [
        {
          "internalType": "address",
          "name": "key",
          "type": "address"
        }
      ],
      "name": "getUsername",
      "outputs": [
        {
          "internalType": "string",
          "name": "",
          "type": "string"
        }
      ],
      "stateMutability": "view",
      "type": "function"
    },
    {
      "inputs": [
        {
          "internalType": "address",
          "name": "followerAddress",
          "type": "address"
        }
      ],
      "name": "removeFollower",
      "outputs": [],
      "stateMutability": "nonpayable",
      "type": "function"
    },
    {
      "inputs": [
        {
          "internalType": "address",
          "name": "followingAddress",
          "type": "address"
        }
      ],
      "name": "removeFriend",
      "outputs": [],
      "stateMutability": "nonpayable",
      "type": "function"
    },
    {
      "inputs": [
        {
          "internalType": "uint256",
          "name": "_id",
          "type": "uint256"
        }
      ],
      "name": "tipPostOwner",
      "outputs": [],
      "stateMutability": "payable",
      "type": "function"
    },
    {
      "stateMutability": "payable",
      "type": "receive"
    }
  ],
  "bytecode": "0x60806040526000805534801561001457600080fd5b5061576f80620000256000396000f3fe60806040526004361061012e5760003560e01c806373fc70b0116100ab578063b9a4134f1161006f578063b9a4134f14610445578063bbcfd3e414610482578063ce43c032146104ab578063d6313c06146104e8578063d7a1cfe114610504578063f8e8dd371461052d57610135565b806373fc70b01461033a57806380cee8a514610377578063969059c1146103a0578063a24d41de146103dd578063aed84e7b1461040857610135565b8063234bb7ba116100f2578063234bb7ba146102435780633056110014610280578063308837ed146102ab57806359737a54146102d45780636ff5f8e7146102fd57610135565b80630d8d57d61461013a5780631500e89f1461017757806319289287146101b45780631e9d48cf146101dd578063212e222a1461021a57610135565b3661013557005b600080fd5b34801561014657600080fd5b50610161600480360381019061015c919061452a565b61056a565b60405161016e91906145f0565b60405180910390f35b34801561018357600080fd5b5061019e6004803603810190610199919061482d565b61063e565b6040516101ab9190614908565b60405180910390f35b3480156101c057600080fd5b506101db60048036038101906101d6919061497e565b6106d8565b005b3480156101e957600080fd5b5061020460048036038101906101ff919061452a565b6109c4565b6040516102119190614a0e565b60405180910390f35b34801561022657600080fd5b50610241600480360381019061023c9190614a55565b610a36565b005b34801561024f57600080fd5b5061026a60048036038101906102659190614a55565b610f7f565b6040516102779190614a91565b60405180910390f35b34801561028c57600080fd5b50610295610fba565b6040516102a29190614d7c565b60405180910390f35b3480156102b757600080fd5b506102d260048036038101906102cd919061452a565b6113af565b005b3480156102e057600080fd5b506102fb60048036038101906102f69190614d9e565b611aab565b005b34801561030957600080fd5b50610324600480360381019061031f919061452a565b611f1c565b6040516103319190614d7c565b60405180910390f35b34801561034657600080fd5b50610361600480360381019061035c919061452a565b612353565b60405161036e9190614f53565b60405180910390f35b34801561038357600080fd5b5061039e6004803603810190610399919061452a565b6124dc565b005b3480156103ac57600080fd5b506103c760048036038101906103c29190614a55565b612bd8565b6040516103d49190614a0e565b60405180910390f35b3480156103e957600080fd5b506103f2612dbe565b6040516103ff919061508e565b60405180910390f35b34801561041457600080fd5b5061042f600480360381019061042a919061452a565b612f97565b60405161043c9190614f53565b60405180910390f35b34801561045157600080fd5b5061046c600480360381019061046791906150b0565b613120565b6040516104799190614a0e565b60405180910390f35b34801561048e57600080fd5b506104a960048036038101906104a49190614a55565b613257565b005b3480156104b757600080fd5b506104d260048036038101906104cd919061452a565b613840565b6040516104df91906145f0565b60405180910390f35b61050260048036038101906104fd9190614a55565b613914565b005b34801561051057600080fd5b5061052b6004803603810190610526919061452a565b613c60565b005b34801561053957600080fd5b50610554600480360381019061054f9190614a55565b613e87565b6040516105619190614a91565b60405180910390f35b6060600160008373ffffffffffffffffffffffffffffffffffffffff1673ffffffffffffffffffffffffffffffffffffffff16815260200190815260200160002060040180546105b99061511f565b80601f01602080910402602001604051908101604052809291908181526020018280546105e59061511f565b80156106325780601f1061060757610100808354040283529160200191610632565b820191906000526020600020905b81548152906001019060200180831161061557829003601f168201915b50505050509050919050565b610646614195565b60005b83518110156106b557828051906020012084828151811061066d5761066c615151565b5b60200260200101518051906020012014156106a2576040518060400160405280828152602001600115158152509150506106d2565b80806106ad906151af565b915050610649565b604051806040016040528060008152602001600015158152509150505b92915050565b600015156106e5336109c4565b151514610727576040517f08c379a000000000000000000000000000000000000000000000000000000000815260040161071e90615244565b60405180910390fd5b6000848490501161076d576040517f08c379a0000000000000000000000000000000000000000000000000000000008152600401610764906152b0565b60405180910390fd5b600082829050116107b3576040517f08c379a00000000000000000000000000000000000000000000000000000000081526004016107aa9061531c565b60405180910390fd5b8383600160003373ffffffffffffffffffffffffffffffffffffffff1673ffffffffffffffffffffffffffffffffffffffff16815260200190815260200160002060000191906108049291906141b1565b508181600160003373ffffffffffffffffffffffffffffffffffffffff1673ffffffffffffffffffffffffffffffffffffffff16815260200190815260200160002060040191906108569291906141b1565b506005604051806060016040528086868080601f016020809104026020016040519081016040528093929190818152602001838380828437600081840152601f19601f8201169050808301925050505050505081526020013373ffffffffffffffffffffffffffffffffffffffff16815260200184848080601f016020809104026020016040519081016040528093929190818152602001838380828437600081840152601f19601f8201169050808301925050505050505081525090806001815401808255809150506001900390600052602060002090600302016000909190919091506000820151816000019080519060200190610957929190614237565b5060208201518160010160006101000a81548173ffffffffffffffffffffffffffffffffffffffff021916908373ffffffffffffffffffffffffffffffffffffffff16021790555060408201518160020190805190602001906109bb929190614237565b50505050505050565b6000806005805490501115610a2c576000600160008473ffffffffffffffffffffffffffffffffffffffff1673ffffffffffffffffffffffffffffffffffffffff1681526020019081526020016000206000018054610a229061511f565b9050119050610a31565b600090505b919050565b600081118015610a4857506000548111155b610a5157600080fd5b600080610c286004600185610a66919061533c565b81548110610a7757610a76615151565b5b9060005260206000209060090201600801805480602002602001604051908101604052809291908181526020016000905b82821015610b54578382906000526020600020018054610ac79061511f565b80601f0160208091040260200160405190810160405280929190818152602001828054610af39061511f565b8015610b405780601f10610b1557610100808354040283529160200191610b40565b820191906000526020600020905b815481529060010190602001808311610b2357829003601f168201915b505050505081526020019060010190610aa8565b50505050600160003373ffffffffffffffffffffffffffffffffffffffff1673ffffffffffffffffffffffffffffffffffffffff1681526020019081526020016000206000018054610ba59061511f565b80601f0160208091040260200160405190810160405280929190818152602001828054610bd19061511f565b8015610c1e5780601f10610bf357610100808354040283529160200191610c1e565b820191906000526020600020905b815481529060010190602001808311610c0157829003601f168201915b505050505061063e565b905060001515816020015115151415610f7a576004600184610c4a919061533c565b81548110610c5b57610c5a615151565b5b90600052602060002090600902016007016000815480929190610c7d906151af565b919050555060005b600160006004600187610c98919061533c565b81548110610ca957610ca8615151565b5b906000526020600020906009020160010160009054906101000a900473ffffffffffffffffffffffffffffffffffffffff1673ffffffffffffffffffffffffffffffffffffffff1673ffffffffffffffffffffffffffffffffffffffff16815260200190815260200160002060030180549050811015610ec85783600160006004600188610d37919061533c565b81548110610d4857610d47615151565b5b906000526020600020906009020160010160009054906101000a900473ffffffffffffffffffffffffffffffffffffffff1673ffffffffffffffffffffffffffffffffffffffff1673ffffffffffffffffffffffffffffffffffffffff1681526020019081526020016000206003018281548110610dc957610dc8615151565b5b9060005260206000209060090201600601541415610eb557600160006004600187610df4919061533c565b81548110610e0557610e04615151565b5b906000526020600020906009020160010160009054906101000a900473ffffffffffffffffffffffffffffffffffffffff1673ffffffffffffffffffffffffffffffffffffffff1673ffffffffffffffffffffffffffffffffffffffff1681526020019081526020016000206003018181548110610e8657610e85615151565b5b90600052602060002090600902016007016000815480929190610ea8906151af565b9190505550809250610ec8565b8080610ec0906151af565b915050610c85565b506004600184610ed8919061533c565b81548110610ee957610ee8615151565b5b9060005260206000209060090201600801600160003373ffffffffffffffffffffffffffffffffffffffff1673ffffffffffffffffffffffffffffffffffffffff16815260200190815260200160002060000190806001815401808255809150506001900390600052602060002001600090919091909150908054610f6d9061511f565b610f789291906142bd565b505b505050565b60006004600183610f90919061533c565b81548110610fa157610fa0615151565b5b9060005260206000209060090201600501549050919050565b60606004805480602002602001604051908101604052809291908181526020016000905b828210156113a65783829060005260206000209060090201604051806101200160405290816000820180546110129061511f565b80601f016020809104026020016040519081016040528092919081815260200182805461103e9061511f565b801561108b5780601f106110605761010080835404028352916020019161108b565b820191906000526020600020905b81548152906001019060200180831161106e57829003601f168201915b505050505081526020016001820160009054906101000a900473ffffffffffffffffffffffffffffffffffffffff1673ffffffffffffffffffffffffffffffffffffffff1673ffffffffffffffffffffffffffffffffffffffff1681526020016002820180546110fa9061511f565b80601f01602080910402602001604051908101604052809291908181526020018280546111269061511f565b80156111735780601f1061114857610100808354040283529160200191611173565b820191906000526020600020905b81548152906001019060200180831161115657829003601f168201915b5050505050815260200160038201805461118c9061511f565b80601f01602080910402602001604051908101604052809291908181526020018280546111b89061511f565b80156112055780601f106111da57610100808354040283529160200191611205565b820191906000526020600020905b8154815290600101906020018083116111e857829003601f168201915b5050505050815260200160048201805461121e9061511f565b80601f016020809104026020016040519081016040528092919081815260200182805461124a9061511f565b80156112975780601f1061126c57610100808354040283529160200191611297565b820191906000526020600020905b81548152906001019060200180831161127a57829003601f168201915b5050505050815260200160058201548152602001600682015481526020016007820154815260200160088201805480602002602001604051908101604052809291908181526020016000905b8282101561138f5783829060005260206000200180546113029061511f565b80601f016020809104026020016040519081016040528092919081815260200182805461132e9061511f565b801561137b5780601f106113505761010080835404028352916020019161137b565b820191906000526020600020905b81548152906001019060200180831161135e57829003601f168201915b5050505050815260200190600101906112e3565b505050508152505081526020019060010190610fde565b50505050905090565b6000806000905060005b600160003373ffffffffffffffffffffffffffffffffffffffff1673ffffffffffffffffffffffffffffffffffffffff168152602001908152602001600020600101805490508110156114de578373ffffffffffffffffffffffffffffffffffffffff16600160003373ffffffffffffffffffffffffffffffffffffffff1673ffffffffffffffffffffffffffffffffffffffff168152602001908152602001600020600101828154811061147157611470615151565b5b906000526020600020906002020160000160009054906101000a900473ffffffffffffffffffffffffffffffffffffffff1673ffffffffffffffffffffffffffffffffffffffff1614156114cb57809250600191506114de565b80806114d6906151af565b9150506113b9565b50801561172657600160003373ffffffffffffffffffffffffffffffffffffffff1673ffffffffffffffffffffffffffffffffffffffff16815260200190815260200160002060010160018060003373ffffffffffffffffffffffffffffffffffffffff1673ffffffffffffffffffffffffffffffffffffffff16815260200190815260200160002060010180549050611578919061533c565b8154811061158957611588615151565b5b9060005260206000209060020201600160003373ffffffffffffffffffffffffffffffffffffffff1673ffffffffffffffffffffffffffffffffffffffff16815260200190815260200160002060010183815481106115eb576115ea615151565b5b90600052602060002090600202016000820160009054906101000a900473ffffffffffffffffffffffffffffffffffffffff168160000160006101000a81548173ffffffffffffffffffffffffffffffffffffffff021916908373ffffffffffffffffffffffffffffffffffffffff16021790555060018201816001019080546116749061511f565b61167f92919061434a565b50905050600160003373ffffffffffffffffffffffffffffffffffffffff1673ffffffffffffffffffffffffffffffffffffffff1681526020019081526020016000206001018054806116d5576116d4615370565b5b6001900381819060005260206000209060020201600080820160006101000a81549073ffffffffffffffffffffffffffffffffffffffff021916905560018201600061172191906143d7565b505090555b6000806000905060005b600160008773ffffffffffffffffffffffffffffffffffffffff1673ffffffffffffffffffffffffffffffffffffffff16815260200190815260200160002060020180549050811015611855573373ffffffffffffffffffffffffffffffffffffffff16600160008873ffffffffffffffffffffffffffffffffffffffff1673ffffffffffffffffffffffffffffffffffffffff16815260200190815260200160002060020182815481106117e8576117e7615151565b5b906000526020600020906002020160000160009054906101000a900473ffffffffffffffffffffffffffffffffffffffff1673ffffffffffffffffffffffffffffffffffffffff1614156118425780925060019150611855565b808061184d906151af565b915050611730565b508015611aa4576000600160008773ffffffffffffffffffffffffffffffffffffffff1673ffffffffffffffffffffffffffffffffffffffff168152602001908152602001600020600201805490509050600160008773ffffffffffffffffffffffffffffffffffffffff1673ffffffffffffffffffffffffffffffffffffffff1681526020019081526020016000206002016001826118f5919061533c565b8154811061190657611905615151565b5b9060005260206000209060020201600160008873ffffffffffffffffffffffffffffffffffffffff1673ffffffffffffffffffffffffffffffffffffffff168152602001908152602001600020600201848154811061196857611967615151565b5b90600052602060002090600202016000820160009054906101000a900473ffffffffffffffffffffffffffffffffffffffff168160000160006101000a81548173ffffffffffffffffffffffffffffffffffffffff021916908373ffffffffffffffffffffffffffffffffffffffff16021790555060018201816001019080546119f19061511f565b6119fc92919061434a565b50905050600160008773ffffffffffffffffffffffffffffffffffffffff1673ffffffffffffffffffffffffffffffffffffffff168152602001908152602001600020600201805480611a5257611a51615370565b5b6001900381819060005260206000209060020201600080820160006101000a81549073ffffffffffffffffffffffffffffffffffffffff0219169055600182016000611a9e91906143d7565b50509055505b5050505050565b611ab4336109c4565b611af3576040517f08c379a0000000000000000000000000000000000000000000000000000000008152600401611aea906153eb565b60405180910390fd5b6000835111611b0157600080fd5b6001600054611b10919061540b565b6000819055506000604051806101200160405280600160003373ffffffffffffffffffffffffffffffffffffffff1673ffffffffffffffffffffffffffffffffffffffff1681526020019081526020016000206000018054611b719061511f565b80601f0160208091040260200160405190810160405280929190818152602001828054611b9d9061511f565b8015611bea5780601f10611bbf57610100808354040283529160200191611bea565b820191906000526020600020905b815481529060010190602001808311611bcd57829003601f168201915b505050505081526020013373ffffffffffffffffffffffffffffffffffffffff16815260200185815260200184815260200183815260200160008152602001600054815260200160008152602001600067ffffffffffffffff811115611c5357611c52614617565b5b604051908082528060200260200182016040528015611c8657816020015b6060815260200190600190039081611c715790505b508152509050600160003373ffffffffffffffffffffffffffffffffffffffff1673ffffffffffffffffffffffffffffffffffffffff1681526020019081526020016000206003018190806001815401808255809150506001900390600052602060002090600902016000909190919091506000820151816000019080519060200190611d14929190614237565b5060208201518160010160006101000a81548173ffffffffffffffffffffffffffffffffffffffff021916908373ffffffffffffffffffffffffffffffffffffffff1602179055506040820151816002019080519060200190611d78929190614237565b506060820151816003019080519060200190611d95929190614237565b506080820151816004019080519060200190611db2929190614237565b5060a0820151816005015560c0820151816006015560e08201518160070155610100820151816008019080519060200190611dee929190614417565b50505060048190806001815401808255809150506001900390600052602060002090600902016000909190919091506000820151816000019080519060200190611e39929190614237565b5060208201518160010160006101000a81548173ffffffffffffffffffffffffffffffffffffffff021916908373ffffffffffffffffffffffffffffffffffffffff1602179055506040820151816002019080519060200190611e9d929190614237565b506060820151816003019080519060200190611eba929190614237565b506080820151816004019080519060200190611ed7929190614237565b5060a0820151816005015560c0820151816006015560e08201518160070155610100820151816008019080519060200190611f13929190614417565b50505050505050565b6060600160008373ffffffffffffffffffffffffffffffffffffffff1673ffffffffffffffffffffffffffffffffffffffff168152602001908152602001600020600301805480602002602001604051908101604052809291908181526020016000905b82821015612348578382906000526020600020906009020160405180610120016040529081600082018054611fb49061511f565b80601f0160208091040260200160405190810160405280929190818152602001828054611fe09061511f565b801561202d5780601f106120025761010080835404028352916020019161202d565b820191906000526020600020905b81548152906001019060200180831161201057829003601f168201915b505050505081526020016001820160009054906101000a900473ffffffffffffffffffffffffffffffffffffffff1673ffffffffffffffffffffffffffffffffffffffff1673ffffffffffffffffffffffffffffffffffffffff16815260200160028201805461209c9061511f565b80601f01602080910402602001604051908101604052809291908181526020018280546120c89061511f565b80156121155780601f106120ea57610100808354040283529160200191612115565b820191906000526020600020905b8154815290600101906020018083116120f857829003601f168201915b5050505050815260200160038201805461212e9061511f565b80601f016020809104026020016040519081016040528092919081815260200182805461215a9061511f565b80156121a75780601f1061217c576101008083540402835291602001916121a7565b820191906000526020600020905b81548152906001019060200180831161218a57829003601f168201915b505050505081526020016004820180546121c09061511f565b80601f01602080910402602001604051908101604052809291908181526020018280546121ec9061511f565b80156122395780601f1061220e57610100808354040283529160200191612239565b820191906000526020600020905b81548152906001019060200180831161221c57829003601f168201915b5050505050815260200160058201548152602001600682015481526020016007820154815260200160088201805480602002602001604051908101604052809291908181526020016000905b828210156123315783829060005260206000200180546122a49061511f565b80601f01602080910402602001604051908101604052809291908181526020018280546122d09061511f565b801561231d5780601f106122f25761010080835404028352916020019161231d565b820191906000526020600020905b81548152906001019060200180831161230057829003601f168201915b505050505081526020019060010190612285565b505050508152505081526020019060010190611f80565b505050509050919050565b6060600160008373ffffffffffffffffffffffffffffffffffffffff1673ffffffffffffffffffffffffffffffffffffffff168152602001908152602001600020600101805480602002602001604051908101604052809291908181526020016000905b828210156124d157838290600052602060002090600202016040518060400160405290816000820160009054906101000a900473ffffffffffffffffffffffffffffffffffffffff1673ffffffffffffffffffffffffffffffffffffffff1673ffffffffffffffffffffffffffffffffffffffff1681526020016001820180546124409061511f565b80601f016020809104026020016040519081016040528092919081815260200182805461246c9061511f565b80156124b95780601f1061248e576101008083540402835291602001916124b9565b820191906000526020600020905b81548152906001019060200180831161249c57829003601f168201915b505050505081525050815260200190600101906123b7565b505050509050919050565b6000806000905060005b600160008573ffffffffffffffffffffffffffffffffffffffff1673ffffffffffffffffffffffffffffffffffffffff1681526020019081526020016000206001018054905081101561260b573373ffffffffffffffffffffffffffffffffffffffff16600160008673ffffffffffffffffffffffffffffffffffffffff1673ffffffffffffffffffffffffffffffffffffffff168152602001908152602001600020600101828154811061259e5761259d615151565b5b906000526020600020906002020160000160009054906101000a900473ffffffffffffffffffffffffffffffffffffffff1673ffffffffffffffffffffffffffffffffffffffff1614156125f8578092506001915061260b565b8080612603906151af565b9150506124e6565b50801561285357600160008473ffffffffffffffffffffffffffffffffffffffff1673ffffffffffffffffffffffffffffffffffffffff16815260200190815260200160002060010160018060008673ffffffffffffffffffffffffffffffffffffffff1673ffffffffffffffffffffffffffffffffffffffff168152602001908152602001600020600101805490506126a5919061533c565b815481106126b6576126b5615151565b5b9060005260206000209060020201600160008573ffffffffffffffffffffffffffffffffffffffff1673ffffffffffffffffffffffffffffffffffffffff168152602001908152602001600020600101838154811061271857612717615151565b5b90600052602060002090600202016000820160009054906101000a900473ffffffffffffffffffffffffffffffffffffffff168160000160006101000a81548173ffffffffffffffffffffffffffffffffffffffff021916908373ffffffffffffffffffffffffffffffffffffffff16021790555060018201816001019080546127a19061511f565b6127ac92919061434a565b50905050600160008473ffffffffffffffffffffffffffffffffffffffff1673ffffffffffffffffffffffffffffffffffffffff16815260200190815260200160002060010180548061280257612801615370565b5b6001900381819060005260206000209060020201600080820160006101000a81549073ffffffffffffffffffffffffffffffffffffffff021916905560018201600061284e91906143d7565b505090555b6000806000905060005b600160003373ffffffffffffffffffffffffffffffffffffffff1673ffffffffffffffffffffffffffffffffffffffff16815260200190815260200160002060020180549050811015612982578573ffffffffffffffffffffffffffffffffffffffff16600160003373ffffffffffffffffffffffffffffffffffffffff1673ffffffffffffffffffffffffffffffffffffffff168152602001908152602001600020600201828154811061291557612914615151565b5b906000526020600020906002020160000160009054906101000a900473ffffffffffffffffffffffffffffffffffffffff1673ffffffffffffffffffffffffffffffffffffffff16141561296f5780925060019150612982565b808061297a906151af565b91505061285d565b508015612bd1576000600160003373ffffffffffffffffffffffffffffffffffffffff1673ffffffffffffffffffffffffffffffffffffffff168152602001908152602001600020600201805490509050600160003373ffffffffffffffffffffffffffffffffffffffff1673ffffffffffffffffffffffffffffffffffffffff168152602001908152602001600020600201600182612a22919061533c565b81548110612a3357612a32615151565b5b9060005260206000209060020201600160003373ffffffffffffffffffffffffffffffffffffffff1673ffffffffffffffffffffffffffffffffffffffff1681526020019081526020016000206002018481548110612a9557612a94615151565b5b90600052602060002090600202016000820160009054906101000a900473ffffffffffffffffffffffffffffffffffffffff168160000160006101000a81548173ffffffffffffffffffffffffffffffffffffffff021916908373ffffffffffffffffffffffffffffffffffffffff1602179055506001820181600101908054612b1e9061511f565b612b2992919061434a565b50905050600160003373ffffffffffffffffffffffffffffffffffffffff1673ffffffffffffffffffffffffffffffffffffffff168152602001908152602001600020600201805480612b7f57612b7e615370565b5b6001900381819060005260206000209060020201600080820160006101000a81549073ffffffffffffffffffffffffffffffffffffffff0219169055600182016000612bcb91906143d7565b50509055505b5050505050565b600080612daf6004600185612bed919061533c565b81548110612bfe57612bfd615151565b5b9060005260206000209060090201600801805480602002602001604051908101604052809291908181526020016000905b82821015612cdb578382906000526020600020018054612c4e9061511f565b80601f0160208091040260200160405190810160405280929190818152602001828054612c7a9061511f565b8015612cc75780601f10612c9c57610100808354040283529160200191612cc7565b820191906000526020600020905b815481529060010190602001808311612caa57829003601f168201915b505050505081526020019060010190612c2f565b50505050600160003373ffffffffffffffffffffffffffffffffffffffff1673ffffffffffffffffffffffffffffffffffffffff1681526020019081526020016000206000018054612d2c9061511f565b80601f0160208091040260200160405190810160405280929190818152602001828054612d589061511f565b8015612da55780601f10612d7a57610100808354040283529160200191612da5565b820191906000526020600020905b815481529060010190602001808311612d8857829003601f168201915b505050505061063e565b90508060200151915050919050565b60606005805480602002602001604051908101604052809291908181526020016000905b82821015612f8e5783829060005260206000209060030201604051806060016040529081600082018054612e159061511f565b80601f0160208091040260200160405190810160405280929190818152602001828054612e419061511f565b8015612e8e5780601f10612e6357610100808354040283529160200191612e8e565b820191906000526020600020905b815481529060010190602001808311612e7157829003601f168201915b505050505081526020016001820160009054906101000a900473ffffffffffffffffffffffffffffffffffffffff1673ffffffffffffffffffffffffffffffffffffffff1673ffffffffffffffffffffffffffffffffffffffff168152602001600282018054612efd9061511f565b80601f0160208091040260200160405190810160405280929190818152602001828054612f299061511f565b8015612f765780601f10612f4b57610100808354040283529160200191612f76565b820191906000526020600020905b815481529060010190602001808311612f5957829003601f168201915b50505050508152505081526020019060010190612de2565b50505050905090565b6060600160008373ffffffffffffffffffffffffffffffffffffffff1673ffffffffffffffffffffffffffffffffffffffff168152602001908152602001600020600201805480602002602001604051908101604052809291908181526020016000905b8282101561311557838290600052602060002090600202016040518060400160405290816000820160009054906101000a900473ffffffffffffffffffffffffffffffffffffffff1673ffffffffffffffffffffffffffffffffffffffff1673ffffffffffffffffffffffffffffffffffffffff1681526020016001820180546130849061511f565b80601f01602080910402602001604051908101604052809291908181526020018280546130b09061511f565b80156130fd5780601f106130d2576101008083540402835291602001916130fd565b820191906000526020600020905b8154815290600101906020018083116130e057829003601f168201915b50505050508152505081526020019060010190612ffb565b505050509050919050565b600080600090505b600160008473ffffffffffffffffffffffffffffffffffffffff1673ffffffffffffffffffffffffffffffffffffffff1681526020019081526020016000206001018054905081101561324b578373ffffffffffffffffffffffffffffffffffffffff16600160008573ffffffffffffffffffffffffffffffffffffffff1673ffffffffffffffffffffffffffffffffffffffff16815260200190815260200160002060010182815481106131e0576131df615151565b5b906000526020600020906002020160000160009054906101000a900473ffffffffffffffffffffffffffffffffffffffff1673ffffffffffffffffffffffffffffffffffffffff161415613238576001915050613251565b8080613243906151af565b915050613128565b50600090505b92915050565b60008111801561326957506000548111155b61327257600080fd5b60006134486004600184613286919061533c565b8154811061329757613296615151565b5b9060005260206000209060090201600801805480602002602001604051908101604052809291908181526020016000905b828210156133745783829060005260206000200180546132e79061511f565b80601f01602080910402602001604051908101604052809291908181526020018280546133139061511f565b80156133605780601f1061333557610100808354040283529160200191613360565b820191906000526020600020905b81548152906001019060200180831161334357829003601f168201915b5050505050815260200190600101906132c8565b50505050600160003373ffffffffffffffffffffffffffffffffffffffff1673ffffffffffffffffffffffffffffffffffffffff16815260200190815260200160002060000180546133c59061511f565b80601f01602080910402602001604051908101604052809291908181526020018280546133f19061511f565b801561343e5780601f106134135761010080835404028352916020019161343e565b820191906000526020600020905b81548152906001019060200180831161342157829003601f168201915b505050505061063e565b90506001151581602001511515141561383c57600460018361346a919061533c565b8154811061347b5761347a615151565b5b9060005260206000209060090201600701600081548092919061349d90615461565b919050555060005b6001600060046001866134b8919061533c565b815481106134c9576134c8615151565b5b906000526020600020906009020160010160009054906101000a900473ffffffffffffffffffffffffffffffffffffffff1673ffffffffffffffffffffffffffffffffffffffff1673ffffffffffffffffffffffffffffffffffffffff168152602001908152602001600020600301805490508110156136e55782600160006004600187613557919061533c565b8154811061356857613567615151565b5b906000526020600020906009020160010160009054906101000a900473ffffffffffffffffffffffffffffffffffffffff1673ffffffffffffffffffffffffffffffffffffffff1673ffffffffffffffffffffffffffffffffffffffff16815260200190815260200160002060030182815481106135e9576135e8615151565b5b90600052602060002090600902016006015414156136d257600160006004600186613614919061533c565b8154811061362557613624615151565b5b906000526020600020906009020160010160009054906101000a900473ffffffffffffffffffffffffffffffffffffffff1673ffffffffffffffffffffffffffffffffffffffff1673ffffffffffffffffffffffffffffffffffffffff16815260200190815260200160002060030181815481106136a6576136a5615151565b5b906000526020600020906009020160070160008154809291906136c890615461565b91905055506136e5565b80806136dd906151af565b9150506134a5565b5060046001836136f5919061533c565b8154811061370657613705615151565b5b906000526020600020906009020160080160016004600185613728919061533c565b8154811061373957613738615151565b5b906000526020600020906009020160080180549050613758919061533c565b8154811061376957613768615151565b5b906000526020600020016004600184613782919061533c565b8154811061379357613792615151565b5b90600052602060002090600902016008018260000151815481106137ba576137b9615151565b5b906000526020600020019080546137d09061511f565b6137db9291906142bd565b5060046001836137eb919061533c565b815481106137fc576137fb615151565b5b906000526020600020906009020160080180548061381d5761381c615370565b5b60019003818190600052602060002001600061383991906143d7565b90555b5050565b6060600160008373ffffffffffffffffffffffffffffffffffffffff1673ffffffffffffffffffffffffffffffffffffffff168152602001908152602001600020600001805461388f9061511f565b80601f01602080910402602001604051908101604052809291908181526020018280546138bb9061511f565b80156139085780601f106138dd57610100808354040283529160200191613908565b820191906000526020600020905b8154815290600101906020018083116138eb57829003601f168201915b50505050509050919050565b60008111801561392657506000548111155b613965576040517f08c379a000000000000000000000000000000000000000000000000000000000815260040161395c906154d7565b60405180910390fd5b3373ffffffffffffffffffffffffffffffffffffffff16600460018361398b919061533c565b8154811061399c5761399b615151565b5b906000526020600020906009020160010160009054906101000a900473ffffffffffffffffffffffffffffffffffffffff1673ffffffffffffffffffffffffffffffffffffffff161415613a25576040517f08c379a0000000000000000000000000000000000000000000000000000000008152600401613a1c90615543565b60405180910390fd5b60006004600183613a36919061533c565b81548110613a4757613a46615151565b5b906000526020600020906009020160010160009054906101000a900473ffffffffffffffffffffffffffffffffffffffff1690508073ffffffffffffffffffffffffffffffffffffffff166108fc349081150290604051600060405180830381858888f19350505050158015613ac1573d6000803e3d6000fd5b50346004600184613ad2919061533c565b81548110613ae357613ae2615151565b5b90600052602060002090600902016005016000828254613b03919061540b565b9250508190555060005b600160008373ffffffffffffffffffffffffffffffffffffffff1673ffffffffffffffffffffffffffffffffffffffff16815260200190815260200160002060030180549050811015613c5b5782600160008473ffffffffffffffffffffffffffffffffffffffff1673ffffffffffffffffffffffffffffffffffffffff1681526020019081526020016000206003018281548110613baf57613bae615151565b5b9060005260206000209060090201600601541415613c485734600160008473ffffffffffffffffffffffffffffffffffffffff1673ffffffffffffffffffffffffffffffffffffffff1681526020019081526020016000206003018281548110613c1c57613c1b615151565b5b90600052602060002090600902016005016000828254613c3c919061540b565b92505081905550613c5b565b8080613c53906151af565b915050613b0d565b505050565b613c69336109c4565b613ca8576040517f08c379a0000000000000000000000000000000000000000000000000000000008152600401613c9f906155af565b60405180910390fd5b613cb1816109c4565b613cf0576040517f08c379a0000000000000000000000000000000000000000000000000000000008152600401613ce79061561b565b60405180910390fd5b8073ffffffffffffffffffffffffffffffffffffffff163373ffffffffffffffffffffffffffffffffffffffff161415613d5f576040517f08c379a0000000000000000000000000000000000000000000000000000000008152600401613d56906156ad565b60405180910390fd5b60001515613d6d3383613120565b151514613daf576040517f08c379a0000000000000000000000000000000000000000000000000000000008152600401613da690615719565b60405180910390fd5b613e848133600160003373ffffffffffffffffffffffffffffffffffffffff1673ffffffffffffffffffffffffffffffffffffffff1681526020019081526020016000206000018054613e019061511f565b80601f0160208091040260200160405190810160405280929190818152602001828054613e2d9061511f565b8015613e7a5780601f10613e4f57610100808354040283529160200191613e7a565b820191906000526020600020905b815481529060010190602001808311613e5d57829003601f168201915b5050505050613ec2565b50565b60006004600183613e98919061533c565b81548110613ea957613ea8615151565b5b9060005260206000209060090201600701549050919050565b600060405180604001604052808473ffffffffffffffffffffffffffffffffffffffff168152602001838152509050600160008573ffffffffffffffffffffffffffffffffffffffff1673ffffffffffffffffffffffffffffffffffffffff16815260200190815260200160002060010181908060018154018082558091505060019003906000526020600020906002020160009091909190915060008201518160000160006101000a81548173ffffffffffffffffffffffffffffffffffffffff021916908373ffffffffffffffffffffffffffffffffffffffff1602179055506020820151816001019080519060200190613fc0929190614237565b505050600060405180604001604052808673ffffffffffffffffffffffffffffffffffffffff168152602001600160008873ffffffffffffffffffffffffffffffffffffffff1673ffffffffffffffffffffffffffffffffffffffff16815260200190815260200160002060000180546140399061511f565b80601f01602080910402602001604051908101604052809291908181526020018280546140659061511f565b80156140b25780601f10614087576101008083540402835291602001916140b2565b820191906000526020600020905b81548152906001019060200180831161409557829003601f168201915b50505050508152509050600160008573ffffffffffffffffffffffffffffffffffffffff1673ffffffffffffffffffffffffffffffffffffffff16815260200190815260200160002060020181908060018154018082558091505060019003906000526020600020906002020160009091909190915060008201518160000160006101000a81548173ffffffffffffffffffffffffffffffffffffffff021916908373ffffffffffffffffffffffffffffffffffffffff160217905550602082015181600101908051906020019061418b929190614237565b5050505050505050565b6040518060400160405280600081526020016000151581525090565b8280546141bd9061511f565b90600052602060002090601f0160209004810192826141df5760008555614226565b82601f106141f857803560ff1916838001178555614226565b82800160010185558215614226579182015b8281111561422557823582559160200191906001019061420a565b5b5090506142339190614477565b5090565b8280546142439061511f565b90600052602060002090601f01602090048101928261426557600085556142ac565b82601f1061427e57805160ff19168380011785556142ac565b828001600101855582156142ac579182015b828111156142ab578251825591602001919060010190614290565b5b5090506142b99190614477565b5090565b8280546142c99061511f565b90600052602060002090601f0160209004810192826142eb5760008555614339565b82601f106142fc5780548555614339565b8280016001018555821561433957600052602060002091601f016020900482015b8281111561433857825482559160010191906001019061431d565b5b5090506143469190614477565b5090565b8280546143569061511f565b90600052602060002090601f01602090048101928261437857600085556143c6565b82601f1061438957805485556143c6565b828001600101855582156143c657600052602060002091601f016020900482015b828111156143c55782548255916001019190600101906143aa565b5b5090506143d39190614477565b5090565b5080546143e39061511f565b6000825580601f106143f55750614414565b601f0160209004906000526020600020908101906144139190614477565b5b50565b828054828255906000526020600020908101928215614466579160200282015b82811115614465578251829080519060200190614455929190614237565b5091602001919060010190614437565b5b5090506144739190614494565b5090565b5b80821115614490576000816000905550600101614478565b5090565b5b808211156144b457600081816144ab91906143d7565b50600101614495565b5090565b6000604051905090565b600080fd5b600080fd5b600073ffffffffffffffffffffffffffffffffffffffff82169050919050565b60006144f7826144cc565b9050919050565b614507816144ec565b811461451257600080fd5b50565b600081359050614524816144fe565b92915050565b6000602082840312156145405761453f6144c2565b5b600061454e84828501614515565b91505092915050565b600081519050919050565b600082825260208201905092915050565b60005b83811015614591578082015181840152602081019050614576565b838111156145a0576000848401525b50505050565b6000601f19601f8301169050919050565b60006145c282614557565b6145cc8185614562565b93506145dc818560208601614573565b6145e5816145a6565b840191505092915050565b6000602082019050818103600083015261460a81846145b7565b905092915050565b600080fd5b7f4e487b7100000000000000000000000000000000000000000000000000000000600052604160045260246000fd5b61464f826145a6565b810181811067ffffffffffffffff8211171561466e5761466d614617565b5b80604052505050565b60006146816144b8565b905061468d8282614646565b919050565b600067ffffffffffffffff8211156146ad576146ac614617565b5b602082029050602081019050919050565b600080fd5b600080fd5b600067ffffffffffffffff8211156146e3576146e2614617565b5b6146ec826145a6565b9050602081019050919050565b82818337600083830152505050565b600061471b614716846146c8565b614677565b905082815260208101848484011115614737576147366146c3565b5b6147428482856146f9565b509392505050565b600082601f83011261475f5761475e614612565b5b813561476f848260208601614708565b91505092915050565b600061478b61478684614692565b614677565b905080838252602082019050602084028301858111156147ae576147ad6146be565b5b835b818110156147f557803567ffffffffffffffff8111156147d3576147d2614612565b5b8086016147e0898261474a565b855260208501945050506020810190506147b0565b5050509392505050565b600082601f83011261481457614813614612565b5b8135614824848260208601614778565b91505092915050565b60008060408385031215614844576148436144c2565b5b600083013567ffffffffffffffff811115614862576148616144c7565b5b61486e858286016147ff565b925050602083013567ffffffffffffffff81111561488f5761488e6144c7565b5b61489b8582860161474a565b9150509250929050565b6000819050919050565b6148b8816148a5565b82525050565b60008115159050919050565b6148d3816148be565b82525050565b6040820160008201516148ef60008501826148af565b50602082015161490260208501826148ca565b50505050565b600060408201905061491d60008301846148d9565b92915050565b600080fd5b60008083601f84011261493e5761493d614612565b5b8235905067ffffffffffffffff81111561495b5761495a614923565b5b602083019150836001820283011115614977576149766146be565b5b9250929050565b60008060008060408587031215614998576149976144c2565b5b600085013567ffffffffffffffff8111156149b6576149b56144c7565b5b6149c287828801614928565b9450945050602085013567ffffffffffffffff8111156149e5576149e46144c7565b5b6149f187828801614928565b925092505092959194509250565b614a08816148be565b82525050565b6000602082019050614a2360008301846149ff565b92915050565b614a32816148a5565b8114614a3d57600080fd5b50565b600081359050614a4f81614a29565b92915050565b600060208284031215614a6b57614a6a6144c2565b5b6000614a7984828501614a40565b91505092915050565b614a8b816148a5565b82525050565b6000602082019050614aa66000830184614a82565b92915050565b600081519050919050565b600082825260208201905092915050565b6000819050602082019050919050565b600082825260208201905092915050565b6000614af482614557565b614afe8185614ad8565b9350614b0e818560208601614573565b614b17816145a6565b840191505092915050565b6000614b2d826144cc565b9050919050565b614b3d81614b22565b82525050565b600081519050919050565b600082825260208201905092915050565b6000819050602082019050919050565b6000614b7b8383614ae9565b905092915050565b6000602082019050919050565b6000614b9b82614b43565b614ba58185614b4e565b935083602082028501614bb785614b5f565b8060005b85811015614bf35784840389528151614bd48582614b6f565b9450614bdf83614b83565b925060208a01995050600181019050614bbb565b50829750879550505050505092915050565b6000610120830160008301518482036000860152614c238282614ae9565b9150506020830151614c386020860182614b34565b5060408301518482036040860152614c508282614ae9565b91505060608301518482036060860152614c6a8282614ae9565b91505060808301518482036080860152614c848282614ae9565b91505060a0830151614c9960a08601826148af565b5060c0830151614cac60c08601826148af565b5060e0830151614cbf60e08601826148af565b50610100830151848203610100860152614cd98282614b90565b9150508091505092915050565b6000614cf28383614c05565b905092915050565b6000602082019050919050565b6000614d1282614aac565b614d1c8185614ab7565b935083602082028501614d2e85614ac8565b8060005b85811015614d6a5784840389528151614d4b8582614ce6565b9450614d5683614cfa565b925060208a01995050600181019050614d32565b50829750879550505050505092915050565b60006020820190508181036000830152614d968184614d07565b905092915050565b600080600060608486031215614db757614db66144c2565b5b600084013567ffffffffffffffff811115614dd557614dd46144c7565b5b614de18682870161474a565b935050602084013567ffffffffffffffff811115614e0257614e016144c7565b5b614e0e8682870161474a565b925050604084013567ffffffffffffffff811115614e2f57614e2e6144c7565b5b614e3b8682870161474a565b9150509250925092565b600081519050919050565b600082825260208201905092915050565b6000819050602082019050919050565b614e7a816144ec565b82525050565b6000604083016000830151614e986000860182614e71565b5060208301518482036020860152614eb08282614ae9565b9150508091505092915050565b6000614ec98383614e80565b905092915050565b6000602082019050919050565b6000614ee982614e45565b614ef38185614e50565b935083602082028501614f0585614e61565b8060005b85811015614f415784840389528151614f228582614ebd565b9450614f2d83614ed1565b925060208a01995050600181019050614f09565b50829750879550505050505092915050565b60006020820190508181036000830152614f6d8184614ede565b905092915050565b600081519050919050565b600082825260208201905092915050565b6000819050602082019050919050565b60006060830160008301518482036000860152614fbe8282614ae9565b9150506020830151614fd36020860182614e71565b5060408301518482036040860152614feb8282614ae9565b9150508091505092915050565b60006150048383614fa1565b905092915050565b6000602082019050919050565b600061502482614f75565b61502e8185614f80565b93508360208202850161504085614f91565b8060005b8581101561507c578484038952815161505d8582614ff8565b94506150688361500c565b925060208a01995050600181019050615044565b50829750879550505050505092915050565b600060208201905081810360008301526150a88184615019565b905092915050565b600080604083850312156150c7576150c66144c2565b5b60006150d585828601614515565b92505060206150e685828601614515565b9150509250929050565b7f4e487b7100000000000000000000000000000000000000000000000000000000600052602260045260246000fd5b6000600282049050600182168061513757607f821691505b6020821081141561514b5761514a6150f0565b5b50919050565b7f4e487b7100000000000000000000000000000000000000000000000000000000600052603260045260246000fd5b7f4e487b7100000000000000000000000000000000000000000000000000000000600052601160045260246000fd5b60006151ba826148a5565b91507fffffffffffffffffffffffffffffffffffffffffffffffffffffffffffffffff8214156151ed576151ec615180565b5b600182019050919050565b7f5573657220616c726564792068617320616e206163636f756e74210000000000600082015250565b600061522e601b83614562565b9150615239826151f8565b602082019050919050565b6000602082019050818103600083015261525d81615221565b9050919050565b7f55736572206e616d652073686f756c64206e6f7420626520656d707479210000600082015250565b600061529a601e83614562565b91506152a582615264565b602082019050919050565b600060208201905081810360008301526152c98161528d565b9050919050565b7f50726f66696c65207069632073686f756c64206e6f7420626520656d70747900600082015250565b6000615306601f83614562565b9150615311826152d0565b602082019050919050565b60006020820190508181036000830152615335816152f9565b9050919050565b6000615347826148a5565b9150615352836148a5565b92508282101561536557615364615180565b5b828203905092915050565b7f4e487b7100000000000000000000000000000000000000000000000000000000600052603160045260246000fd5b7f55736572206e6f74207265676973746572656421000000000000000000000000600082015250565b60006153d5601483614562565b91506153e08261539f565b602082019050919050565b60006020820190508181036000830152615404816153c8565b9050919050565b6000615416826148a5565b9150615421836148a5565b9250827fffffffffffffffffffffffffffffffffffffffffffffffffffffffffffffffff0382111561545657615455615180565b5b828201905092915050565b600061546c826148a5565b915060008214156154805761547f615180565b5b600182039050919050565b7f496e76616c696420706f73742069640000000000000000000000000000000000600082015250565b60006154c1600f83614562565b91506154cc8261548b565b602082019050919050565b600060208201905081810360008301526154f0816154b4565b9050919050565b7f43616e6e6f742074697020796f7572206f776e20706f73740000000000000000600082015250565b600061552d601883614562565b9150615538826154f7565b602082019050919050565b6000602082019050818103600083015261555c81615520565b9050919050565b7f43726561746520616e206163636f756e74206669727374000000000000000000600082015250565b6000615599601783614562565b91506155a482615563565b602082019050919050565b600060208201905081810360008301526155c88161558c565b9050919050565b7f55736572206973206e6f74207265676973746572656421000000000000000000600082015250565b6000615605601783614562565b9150615610826155cf565b602082019050919050565b60006020820190508181036000830152615634816155f8565b9050919050565b7f55736572732063616e6e6f7420616464207468656d6573656c7665732061732060008201527f667269656e647300000000000000000000000000000000000000000000000000602082015250565b6000615697602783614562565b91506156a28261563b565b604082019050919050565b600060208201905081810360008301526156c68161568a565b9050919050565b7f54686573652075736572732061726520616c726561647920667269656e647300600082015250565b6000615703601f83614562565b915061570e826156cd565b602082019050919050565b60006020820190508181036000830152615732816156f6565b905091905056fea26469706673582212200f2abfd6bbffe28f7c825d504a120d61ed9c6d40d175a344a47f30b1d8042ea864736f6c63430008090033",
  "linkReferences": {},
  "deployedLinkReferences": {}
}